:020000040800F2
:10000000701A002001010008331100085D0C00087F
:1000100031110008450200085723000800000000C5
:10002000000000000000000000000000B116000801
:100030006D0A00080000000055130008B91D0008F3
:100040001B0100081B0100081B0100081B01000820
:100050001B0100081B0100081B0100081B01000810
:100060001B0100081B0100081B0100081B01000800
:100070001B0100081B0100081B0100081B010008F0
:100080001B0100081B0100081B0100081B010008E0
:100090000D2300081B0100081B0100081B010008BC
:1000A0001B0100081B0100081B0100081B010008C0
:1000B0001B0100081B0100081B010008B50C00080B
:1000C000610C00081B0100081B0100081B0100084F
:1000D0001B010008891E0008191F00081B010008E9
:1000E0001B0100081B0100081B010008DFF80CD0F1
:1000F00000F058F80048004729280008701A00202E
:100100000648804706480047FEE7FEE7FEE7FEE7B1
:10011000FEE7FEE7FEE7FEE7FEE7FEE7BD1D00089F
:10012000ED0000082DE9F05F0546002092469B4651
:1001300088460646814640241BE0284641464746FD
:10014000224600F041F853465A46C01A914110D356
:1001500011461846224600F016F82D1A67EB0108E2
:100160004F4622460120002100F00DF817EB000950
:100170004E41201EA4F10104DFDC484631462A46E8
:100180004346BDE8F09F202A04DB203A00FA02F142
:10019000002070479140C2F1200320FA03F3194375
:1001A00090407047064C074D06E0E06840F00103C0
:1001B00094E8070098471034AC42F6D3FFF79AFF53
:1001C000842B0008A42B0008202A04DB203A21FA03
:1001D00002F00021704721FA02F3D040C2F1200260
:1001E000914008431946704770B501EB020410F8BE
:1001F000015B15F0070301D110F8013B2A1106D16C
:1002000010F8012B03E010F8016B01F8016B5B1E85
:10021000F9D12B0705D40023521E0FD401F8013B5E
:10022000FAE710F8013B02F10202A1EB030303E03D
:1002300013F8015B01F8015B521EF9D5A142D6D338
:10024000002070BDFEE7C1B2000A40EA01207047FD
:1002500010B501F0B7FF01F00BFF01F0E1FEBDE8C2
:10026000104001F0D3BD00002DE9F84F00200090B0
:100270004BF6BF7748F280085E4E40F68F795E4DB0
:100280005E4C48F60F7ADFF878B128E0BBF8000042
:1002900000F00F00287058B304EB80000168009153
:1002A000BDF80010090409D5016801EA09010160DF
:1002B00028785449401E51F820008047BDF80000BE
:1002C00000060CD5287804EB8000016801EA0A01D9
:1002D000016028784C49401E51F82000804747486B
:1002E00044300068ABF800000004CFD4BDE8F88FBC
:1002F00020683080308800F030007080308800F452
:10030000405030802068384080F4005080F0200059
:1003100040EA08002060BBF80000C0061FD4206837
:1003200000EA0A00206000F069FE20683840318849
:10033000C90401D580F480503188890401D580F446
:1003400000507188C90601D580F0100071888906B7
:1003500001D580F0200040EA08002060C6E7206850
:100360000090BDF8000000051FD5206800EA0900D4
:10037000206001F02DFB206838403188C90401D588
:1003800080F480503188890401D580F40050718850
:10039000C90601D580F010007188890601D580F06A
:1003A000200040EA08002060A0E7BDF8000000043B
:1003B00095D5206800EA0900206000F093FF2068CE
:1003C00038403188C90401D580F4805031888904CF
:1003D00001D580F400507188C90601D580F0100065
:1003E0007188890601D580F0200040EA080020606D
:1003F0007CE700002A00002018000020005C00407C
:10040000340100205401002038010020074901EB8D
:10041000800001684904002907DA016848F68F72F4
:1004200011404CF28002114301607047005C0040B3
:10043000074901EB800001684906002907DA0168D5
:1004400048F68F72114048F2C002114301607047B4
:10045000005C0040054901EB8000016848F68F62AE
:10046000114048F28002114301607047005C004077
:1004700010B500211B4A06281268137803F07F0389
:1004800003D1012B01D1547914B1212B0AD00BE0F7
:100490009078222802D0212802D01AE0124918E0D0
:1004A000124916E0032802D0212B02D003E01049A4
:1004B0000FE0012802D0212B05D00AE09078032814
:1004C00007D10C4905E0092803D19078032800D111
:1004D000094929B19161002050828847002010BD50
:1004E000022010BD1C0000203D0500081505000875
:1004F0002105000849050008B5060008014901F07A
:1005000033BB000088010020014901F02DBB000031
:1005100080010020014901F027BB00009801002064
:10052000002801D003487047034901200968088268
:10053000002070477C0100201C000020014901F0D0
:1005400013BB00009001002006490028096805D06F
:100550000548C97801700621417070470220088261
:10056000002070471C000020760100200549096822
:10057000C978042901D900207047034A02EBC10160
:1005800001F0F2BA1C000020D0010020002901D0A7
:100590000220704708B10220704700207047000019
:1005A00006490968097801F07F01212901D10B284A
:1005B00001D00220704700F071B800001C0000203C
:1005C00010B52848002100688172C1722649C97996
:1005D0004172002001F07AF84FF40071002001F020
:1005E00041F91021002001F013F91821002001F039
:1005F00095F85821002001F0EDF80020FFF72AFFC0
:100600001A4890F82C10002001F098F8002001F012
:10061000CFF84FF4C061012001F024F94FF480714C
:10062000012001F0D7F84FF4A071012001F076F815
:100630004021012001F0DEF84021012001F07EF888
:100640004FF44051012001F09BF82021012001F0DE
:10065000DFF8074901200860BDE81040002001F0E4
:100660003DB800001C000020CA280008A00100209E
:100670001001002004480068807A002802D0034955
:1006800005200860704700001C00002010010020B9
:1006900001490420086070471001002003480068E9
:1006A000C078034988600020704700001C000020CB
:1006B00074010020002801D0054870470549032037
:1006C0000968088204490220087000207047000071
:1006D000780100201C0000209300002008480068DA
:1006E000017801F07F01212908D14178012905D144
:1006F000007A062802D103490120487070470000A3
:100700001C0000207401002008480068017801F0F6
:100710007F01212908D14178092905D1007A0628CD
:1007200002D1034901200870704700001C0000201E
:100730007401002010B500F075FA07480024006825
:10074000847200F029FE01F0E3FD044804600448CF
:100750000470447010BD00001C0000201001002037
:10076000740100202DE9F047DFF89880D8F80010D8
:1007700001F1100528880E7A234F4FF03009002828
:1007800001D1042E04D0AC88A04215D8042614E070
:100790001E480178012903D00726102038802BE05D
:1007A0001B4A002112681B4B92B2921C43F8121094
:1007B000A7F8009001701FE00226844200D9044689
:1007C000A968204688478246002000F01DFA0146AD
:1007D0002246504601F0C0FD2146002001F00AF8F3
:1007E0002888001B2880688820446880A7F800902B
:1007F00009494FF440500880D8F800000672BDE85F
:10080000F08700001C0000202C00002014000020B5
:10081000505C0040006000402A0000202DE9F041BB
:10082000214E346810342088A168002915D0A0B169
:10083000A588854200D9054628468847074620886E
:10084000401B2080608828446080002000F0CCF9A4
:1008500001462A46384600F06BFD2088134F3025AC
:1008600038B11349280208800021084600F0C2FF71
:100870003D802088A188884204D331680320087213
:10088000BDE8F08118B1316805200872F8E73168D9
:1008900006200872074800210068074A80B2801CC1
:1008A00042F810103D80EBE71C0000202C000020D7
:1008B0002A000020505C0040006000402DE9F84311
:1008C000614E306842780024604D062A296801D0C4
:1008D0008AB117E00278520665D18078012804D0E9
:1008E000022804D0032804D05DE0CC695BE00C6AE8
:1008F00059E04C6A57E0438823B9C388022B01D1E1
:10090000037923B1082A35D00A2A38D04BE002787F
:10091000530601D1838833B102F07F02012A04D04B
:10092000022A0CD03FE04A4C3DE08A694079002120
:10093000904718BB3068807A00B3454C33E041796A
:1009400001F00F0001F070020B06424905D551F885
:100950002010C1F30111090104E051F82010C1F386
:10096000013109033C4B1B7883421CD932B929B1B0
:10097000374C18E00078400615D1384C13E0027867
:1009800002F07F02012A0ED1827A62B1428852B906
:10099000027942B9C288012A05D18A6940790021C9
:1009A000904700B92E4C09274FF000083CB1306841
:1009B000A0F8128084610020A047002006E029688A
:1009C0003068096940788847032808D031680A8A66
:1009D000A2F57F43FF3B05D10F72BDE8F883306875
:1009E0000772FAE702280BD052B10878000624D526
:1009F000C88800900098824206D90098088214E0C6
:100A00004FF008000872E8E70FD22868154B90F8FD
:100A10002C00824202D283F8008006E0B2FBF0F4A0
:100A200000FB142008B901201870286890F82C00E9
:100A30008882BDE8F843FFF795BE032008720A4993
:100A400000030880C9E700001C00002020000020EF
:100A5000B11B0008005C004070010020411B000831
:100A6000891B0008140000202A00002070470000A5
:100A700038B50121042000F0B3FC4020ADF800009F
:100A800003208DF8020010208DF80300044C694605
:100A9000204600F025F84021204600F0A3F838BD9C
:100AA0000008014070477047014903200860704703
:100AB0001001002004490A6822F010020A600A6846
:100AC00002430A607047000000200240034A116898
:100AD00001F038010143116070470000002002401E
:100AE0002DE9F0410022CC7804F00F03E406002C3D
:100AF00001DA8C7823430C780F274FF0010CE4B116
:100B000005680CFA02F40E882640A64211D1960020
:100B100007FA06F825EA080503FA06F848EA050583
:100B2000CE78282E02D0482E02D002E0446100E0A8
:100B30000461521C082AE4D305600A88FF2A1ED9E2
:100B40004568002202F108060CFA06F40E882640D9
:100B5000A64210D1960007FA06F825EA080503FA1E
:100B600006F848EA0505CE78282E00D14461CE78F3
:100B7000482E00D10461521C082AE3D34560BDE829
:100B8000F0810000F0B5154C002801DAE36900E0BF
:100B90006368C0F30346420D120185B2C0F30157EA
:100BA0009540032F07D0C2020CD50322B2409343D5
:100BB00043F0706209E023F07062636823F07063B1
:100BC000636002E0AB4343F0706201B12A43002846
:100BD00001DAE261F0BD6260F0BD0000000001409A
:100BE00041617047016170470549096889B201EBAD
:100BF000C0000449001D31F8100080B270470000A9
:100C0000505C0040006000400449096889B201EB73
:100C1000C000034931F8100080B27047505C0040BA
:100C20000060004010B50B480168001D0468001DFD
:100C30000068084400280BD00822074900F04AFA4F
:100C4000054920460422BDE81040103100F042BAA8
:100C500010BD0000E8F7FF1F19010020FEE70000AB
:100C600008B50021124802880092009A5205002A15
:100C700004DA028822F4806202800091009A9205D0
:100C800004D5028822F4806202800091009AD20585
:100C900004D5028822F4807202800091009A120525
:100CA00004D5028822F400620280009108BD000091
:100CB000145400402DE9F0470024DFF81C91484609
:100CC00000F0E4F8DFF81481002508F10406A6F12D
:100CD0000807B0F1021F29D0A0F50031403957D1E3
:100CE000484600F073F979784A1CD2B27A70705491
:100CF00031783970032A0ED9F01E32195278025514
:100D0000641CE4B2032CF8D37D7098F8000040F026
:100D1000020088F80000891F0C2913D2DFE801F0D7
:100D20002F2F2F2F2F121212121214267D7098F8C7
:100D3000000040F0010088F80000484600F046F945
:100D400079787054BDE8F0877D70F978FF2011B193
:100D5000FD70307001E0B9783170B978FF29F1D0B9
:100D60001F4909780029EDD1B870EBE778780128A0
:100D7000E8D97D7070780128E4D1F870E2E77D70E1
:100D800016480C3030F81100010A31707070D9E744
:100D9000A0F5C021823901D0891E08D17878411C84
:100DA0007970315C4846BDE8F04700F012B9B0F503
:100DB000806F0BD01028C5D10A49484600F04DF885
:100DC0000021484600F03DF87D70BBE706494846E3
:100DD00000F028F87D70B5E700540040FA000020CC
:100DE0003000002010000010000400101FB5012189
:100DF000480500F0E7FA00F057F9094C00212046B9
:100E000000F013F8684600F0E7F86946204600F065
:100E10004FF800F091F90121204600F006F81FBDBF
:100E200000540040C94381827047002904D00188E2
:100E300041F0010101807047018821F0010101802A
:100E40007047002904D0018841F400710180704787
:100E5000018821F40071018070470CB50246002022
:100E600000920A0F019221F07F41019A002A03D0DB
:100E7000009A1432009203E0090C009A1832009292
:100E8000009A12680A4200D001200CBD818A008BB2
:100E90000004014321F07F407047002A03D082887C
:100EA0000A438280704782888A43828070470000AC
:100EB00070B586B004460D46A08820F03F0601A814
:100EC00000F0BCFA03982749B0FBF1F189B20E4358
:100ED000A680228822F001022280234B2A689A42AF
:100EE00009D85200B0FBF2F080B2042800D20420EE
:100EF000491C218422E0EB88A3F53F46FF3E05D143
:100F000002EB4202B0FBF2F080B208E002EBC20357
:100F100003EB0212B0FBF2F080B240F48040020515
:100F200001D140F0010040F400404FF4967251436B
:100F30004FF47A72B1FBF2F1491C2184A08320881E
:100F400040F00100208020884FF6F5310840A98844
:100F50006A89114301432180A88929890843208196
:100F600006B070BD40420F00A086010030B40021E1
:100F7000134A144D1278002A11D0012A16D0022AE1
:100F80001BD1114A435C5418E371491CC9B20329AF
:100F9000F8D3284630BC0A220B4900F067BF0A4943
:100FA0002846092230BC123900F060BF06492846A5
:100FB000092230BC093900F059BF30BC704700002D
:100FC000F6000020004400404A000020008AC0B221
:100FD000704701827047000007490160002181804D
:100FE0004BF6FF71C180A42101814FF480614181E2
:100FF0000901818170470000A086010010B5144CE2
:101000002068017A02290AD0042908D006290BD0C9
:10101000082021680872BDE8104000F09DB9FFF774
:10102000A1FB2068007AF4E74178052909D101780D
:10103000490606D1C07800F051FB06480068006AF6
:10104000804705480068806880470820E1E7000085
:101050001C000020240000202000002008B547F6D6
:101060002A70ADF8000002208DF8020004208DF8EF
:1010700003000121084600F0B3F901210748FFF7FA
:1010800081FD69460648FFF72BFD4FF40050ADF88F
:10109000000069460348FFF723FD08BD0002300049
:1010A000000C01400010014008B50121092000F0AA
:1010B00097F9C020ADF8000003208DF802001C2035
:1010C0008DF8030069460248FFF70AFD08BD0000DD
:1010D000000C0140F0B500230A25302637270024F4
:1010E00012E0B5EB107F04D906EB107C01F813C0B9
:1010F00003E007EB107C01F813C0000101EB430C87
:101100008CF801405B1CDBB29342EAD3F0BD0000D7
:101110000548817A0548002902D005210160704701
:10112000012101607047000014020020100100201E
:10113000FEE770477047000038B54FF4A06000F03C
:1011400057F81F208DF8000002258DF8015000206F
:101150008DF8020001248DF80340684600F016F86F
:1011600020208DF800008DF801508DF802408DF898
:101170000340684600F00AF801224FF4E06102489B
:10118000FFF78BFE38BD000000540040F0B50F2380
:10119000C278012601784FF0E027002A1BD0124ABE
:1011A000126802F4E062C2F5E062120AC2F10404BD
:1011B000D3404578A54082781A402A4312010B4B50
:1011C000CA54007800F01F018E40400907EB8000F0
:1011D000C0F80061F0BD01F01F008640480907EB30
:1011E0008000C0F88061F0BD0CED00E000E400E09C
:1011F0000249084302490860704700000000FA05F0
:101200000CED00E070B50220314D29684C780A7869
:10121000530606D002F07F0101292ED0022931D0D9
:101220003AE0092C06D0052C07D0032C12D0012C53
:1012300018D031E000F016FD2EE0C8787F2805D8E0
:10124000887818B9888808B9887A08B108203CE0FD
:10125000002021E0CA78012A1ED18988E1B900F076
:101260001DFD19E0CA78012A16D18A88A2B9497AE7
:10127000890611D500F0E6FB0EE00B2C0CD100F036
:1012800065FD09E0012C02D0032C03D004E000F03E
:10129000D9FB01E000F014FD30B10E492046096889
:1012A00049698847032802D018B108200DE00920B9
:1012B0000BE00620084900220968084B89B2891C06
:1012C00043F81120064A302111802968087270BD48
:1012D0001C00002020000020505C00400060004006
:1012E0002C00002010B5104C2068007A02280ED087
:1012F00004280CD003280CD005280AD007280DD0CC
:10130000082021680872BDE8104000F025B80820C8
:10131000F7E7FFF783FA2068007AF2E703480068EE
:10132000C06880470820ECE71C0000202000002057
:10133000521C5208064B03EB4101002A06D031F83B
:10134000043B20F8023B521E002AF8D170470000EF
:10135000006000407047000010B50B4890F82C105A
:10136000002000F0EBF909480068007A082805D150
:10137000074A41021180074A10211180092801D033
:10138000002010BD012010BDA00100201C00002085
:101390002A0000202C00002010B5012000F022FFC0
:1013A000012106480160064A00210160031D196001
:1013B0004FF4E05111800160002010BD405C0040FE
:1013C00028000020054A002903D0D1690143D161DA
:1013D0007047D1698143D16170470000001002401D
:1013E000054A002903D091690143916170479169D1
:1013F0008143916170470000001002400C48016871
:1014000041F00101016041680A4A114041600168F0
:10141000094A11400160016821F48021016041689E
:1014200021F4FE0141604FF41F018160704700000C
:10143000001002400000FFF8FFFFF6FE10B5264A3C
:10144000516801F00C01254B002927D0042927D031
:10145000082927D00360516801F0F0010909204BE9
:101460005C5C0168E1404160546804F4E064240A73
:101470001C5D21FA04F48460546804F46054E40AA6
:101480001B5DD940C160526802F44042920B144B7C
:101490001B1F9A5CB1FBF2F1016110BD0360DAE73A
:1014A0000360D8E7516801F47011536803F4803386
:1014B000022404EB914133B153689B0307D5094BD8
:1014C00059430160C7E7074B59430160C3E7034B2A
:1014D00059430160BFE700000010024000127A008B
:1014E0000400002000093D00034600205909094A74
:1014F00001290AD002290AD0516A03F01F020123F0
:1015000093400B4200D0012070471168F5E7116A43
:10151000F3E70000001002400248406800F00C00B1
:101520007047000000100240034A516821F0F001AA
:101530000143516070470000001002400C490A68E6
:1015400022F480320A600A6822F480220A60B0F530
:10155000803F07D0B0F5802F03D1086840F4A02069
:1015600008607047086840F48030086070470000E9
:1015700000100240034A516821F4E06101435160C8
:101580007047000000100240034A516821F4605186
:1015900041EAC000506070470010024001490866EF
:1015A0007047000000004242034B5A6822F47C124C
:1015B000084310435860704700100240034A5168C6
:1015C00021F0030101435160704700000010024008
:1015D0000149086070470000D800424218B5002059
:1015E00000904FF4A0643120FFF77EFF0099491C62
:1015F00000910099A14201D00028F4D03120FFF7DA
:1016000073FF08B1012018BD002018BD70B51E4C35
:10161000072800D020702078062504261B490628BC
:1016200030D2DFE800F003070B10182200F030F88A
:10163000257070BD00F02CF8267070BD022060701F
:101640000320207070BD6078401E607060780028B4
:10165000F8D1267070BD086880B240F010000860B4
:10166000052020700A20607070BD6078401E607098
:1016700060780028F8D1086880B220F01000086077
:10168000257070BD257070BD15010020405C0040C4
:1016900010B5064C206880B220F004002060FFF7EF
:1016A00037FD4FF43F40206010BD0000405C00401B
:1016B0007047000004490A881206FCD5024AC0F3AC
:1016C0000801121D1180704700380140024920F0C6
:1016D0000700086070470000505C0040F0B50D49FD
:1016E0000E7800210C4C48F68F7748F2800C09E008
:1016F000CBB204EB830215683D401D4345EA0C055F
:101700001560491CB142F3D3034940F080004C31CD
:101710000860F0BD70010020005C0040054A21F027
:101720000101126892B202EBC000034A001D42F8A8
:1017300010107047505C0040006000400E4A126874
:1017400092B202EBC0000D4A801D02EB40023E291E
:101750000AD94809C90601D1401E80B24FF40041A0
:1017600041EA8020106070474808C90700D0401C3B
:101770008002106070470000505C00400060004034
:101780000A4A02EB800210684BF68F731840CB04B4
:10179000002B01DA80F48050890401D580F40050D8
:1017A00048F280010843106070470000005C004070
:1017B000074901EB800001684BF68F72114081F4FC
:1017C000805181F4005148F280021143016070475A
:1017D000005C0040054A21F00101126892B202EB60
:1017E000C000034A42F8101070470000505C0040EF
:1017F00000600040044A126892B202EBC000034A43
:10180000801C42F810107047505C0040006000409F
:101810000A4A02EB8002106848F6BF731840CB06F4
:10182000002B01DA80F01000890601D580F020003D
:1018300048F280010843106070470000005C0040DF
:10184000074901EB8000016848F6BF72114081F042
:10185000100181F0200148F28002114301607047BD
:10186000005C0040044A02EB8000026848F68F13D7
:101870001A400A4302607047005C0040AFF30080EA
:101880000CB50022019200922748016841F4803192
:1018900001604FF4A063016801F4003100910199E7
:1018A000491C0191009911B901999942F3D101683C
:1018B000890302D50121009100E0009200990129DD
:1018C00030D11A490A6842F010020A600A6822F010
:1018D00003020A600A6842F002020A60416841603D
:1018E00041684160416841F480614160416821F490
:1018F0007C114160416841F4E8114160016841F0A8
:101900008071016001688901FCD5416821F0030103
:101910004160416841F0020141604168C1F38101C9
:101920000229FAD10CBD0000001002400020024044
:1019300010B5FFF763FD4FF480342046FFF7FEFD3E
:10194000FFF74CFE1C490870012800D0FEE710206C
:10195000FFF7B0F80220FFF7B9F80020FFF7E4FD29
:101960000020FFF711FE4FF48060FFF703FE4FF4F5
:10197000E0112046FFF718FE0120FFF70FFE392087
:10198000FFF7B2FD0028FAD00220FFF717FEFFF79D
:10199000C3FD0828FBD101214006FFF713FD0121FB
:1019A0000820FFF71DFD01211020FFF719FDBDE8FC
:1019B0001040FFF75DB80000F400002010B50020D3
:1019C000FFF706FE0121BDE81040C805FFF7FABC8D
:1019D00038B51948006881B21848091D30F811104F
:1019E00089B200EB41040094154D2868017A092959
:1019F00013D0217801706178241D41702088FEF792
:101A000022FC29684880A088A41DFEF71CFC2968D8
:101A10008880A41C00942088C88028680121017255
:101A2000C08828B1FEF74AFFBDE83840FFF794BCF4
:101A3000FFF7E8FBF8E70000505C00400060004062
:101A40001C0000202DE9F04138480068017801F0C1
:101A50007F01002904D0022908D00220BDE8F081CE
:101A6000417A01F0DF0141720020F7E7418809B9AE
:101A7000017909B10220F1E72D4B417921F0800471
:101A80002C4E0A0605D556F82420C2F30112120185
:101A900004E056F82420C2F3013212031D78A54257
:101AA0000BD952B1807A40B1080610D556F82400FF
:101AB000C0F30110012802D021E00220CEE7204629
:101AC000FEF7B6FC20463021FFF7A2FE17E006EB3A
:101AD00084052868C0F30130012810D14BF68F78B7
:101AE00048F280078CB12046FEF790FC286800EA97
:101AF000080080F4805080F40050384328600E487D
:101B00000068406980470020A8E70C4890F82C1036
:101B10000020FFF713FE306800EA080080F48050D0
:101B200080F4005038433060E9E700001C000020DA
:101B300070010020005C004024000020A001002073
:101B400010B5074C002806D006480068006880479A
:101B500020680A3010BD216801200882002010BDD5
:101B60001C00002024000020064A13685A8A00281E
:101B700002D00868104470478888801A18820020B4
:101B8000704700001C00002010B5074C002806D04C
:101B9000064800688068804720680C3010BD2168C6
:101BA00001200882002010BD1C000020240000201D
:101BB00010B52849002809680DD027480022028066
:101BC0000A7853060BD002F07F02012A1FD0022AA6
:101BD0001FD0002010BD02200882002010BD497ACD
:101BE0008A0604D5027842F00202027003E002780D
:101BF00002F0FD020270490604D5017841F00101AE
:101C0000017021E0017801F0FE0101701CE0124832
:101C100010BD4A7902F00F011306104A0AD552F896
:101C20002110C1F3011101290ED1017841F0010108
:101C3000017009E052F82110C1F30131012903D1EB
:101C4000017841F001010170054800680069804792
:101C5000014810BD1C00002016000020005C004060
:101C60002400002010B50A480A4A00685278C1785A
:101C7000914203D882780AB982880AB1022010BD45
:101C800081720548006840688047002010BD000050
:101C90001C000020700100202400002010B5064820
:101CA0000068417A41F02001417204480068C0692F
:101CB0008047002010BD00001C00002024000020F0
:101CC00070B51E480268517921F080041C480B064B
:101CD00021F0800500EB8500002B04DA0368C3F3D4
:101CE00001131B0103E00368C3F301331B03154D0C
:101CF0002D78A54211D954887CB973B1927A62B11A
:101D0000090648F280020AD5016848F6BF731940F7
:101D100081F010011143016009E0022070BD0168EB
:101D20004BF68F73194081F48051114301600648CE
:101D3000006880698047002070BD00001C00002002
:101D4000005C0040700100202400002010B50F4C02
:101D50000F4A20681268C1789269407990472168DB
:101D60008A7A8AB118B9087908B9887808B1022046
:101D700010BD08480068C068804720684179C1727A
:101D8000C1780173002010BD022010BD1C0000208E
:101D900020000020240000200648016889B241F09C
:101DA00008010160016889B241F004010160FEF799
:101DB0007BBE0000405C00407047000010B50F483B
:101DC000016841F00101016041680D4A1140416024
:101DD00001680C4A11400160016821F48021016012
:101DE000416821F4FE0141604FF41F018160FFF75B
:101DF00045FD05494FF00060086010BD001002402D
:101E00000000FFF8FFFFF6FE08ED00E0F8B54FF424
:101E1000A060FFF7EDF925208DF8000000258DF872
:101E200001508DF8025001248DF803406846FFF7F9
:101E3000ADF940F22556012231460A4800F048F932
:101E400026208DF800008DF801508DF802408DF8A5
:101E500003406846FFF79AF901223146024800F034
:101E600037F9F8BD003801400044004010B50023A8
:101E700006E0CC5C848004886406FCD55B1CDBB285
:101E80009342F6D310BD000030B51F480188890683
:101E900000291DDA1D4B012199704FF6DF71018079
:101EA0001B49002291F82B002B2801D381F82B200D
:101EB0001548001D008891F82B400855087899288E
:101EC00006D191F82B00022803D2401C81F82B0088
:101ED00030BD4C7844F41944A4F51945233D0FD185
:101EE000062802D2401C81F82B0091F82B0006280E
:101EF000EED381F82B208878064908709A7030BD9F
:101F000081F82B2030BD0000003801402E00002059
:101F10005C020020F800002070B53748018889066F
:101F200000291ADA4FF6DF7101803449002491F854
:101F30002B002B2801D381F82B402F48001D00884F
:101F400091F82B20885408781F2806D191F82B008F
:101F5000022803D2401C81F82B0070BD4A7842F45D
:101F6000F852A2F5F853F73B42D12B2802D2401C7D
:101F700081F82B0091F82B002B28EED3204A022069
:101F80001070204D01266E7068780B181B79022B9B
:101F900028D0032B29D01454401CC0B20B181B7935
:101FA0001354401CC0B20B181B791354401CC0B210
:101FB0000B181B791354401CC0B20B181B79135417
:101FC000401CC0B20B181B791354401CC0B268707F
:101FD0002028D9D368780B181B79135481F82B402B
:101FE0002E7070BD04231354D6E707231354D3E790
:101FF00081F82B4070BD00000044004030020020FA
:10200000E81500202E000020002904D0818941F429
:10201000005181817047818921F40051818170478D
:102020001FB54FF4E13000900020ADF80600ADF888
:102030000400ADF80800ADF80C000C20ADF80A0063
:10204000094C6946204600F05FF801212046FFF761
:10205000DBFF064C6946204600F056F80121204679
:10206000FFF7D2FF1FBD00000038014000440040D0
:10207000F8B518268DF803600424ADF80040032558
:102080008DF80250114F69463846FEF729FD8DF84C
:1020900003400820ADF8000069463846FEF720FDF1
:1020A0008DF80360E001ADF800008DF8025069463C
:1020B0003846FEF715FD8DF803402002ADF800000C
:1020C00069463846FEF70CFDF8BD000000080140E7
:1020D00010B540F66A13C1F3421301F01F04012149
:1020E000A140012B07D0022B07D014303AB102686F
:1020F0000A43026010BD0C30F8E71030F6E70268C2
:102100008A43026010BD000030B585B004460D461C
:10211000208A4CF6FF710840E98801432182A0899A
:102120004EF6F3110840A9882A8911436A890243AF
:102130001143A181A08A4FF6FF410840A9890143BC
:10214000A1826846FFF77AF91D48844201D10398BD
:1021500000E00298A189090408D500EBC00101EB59
:10216000001029684900B0FBF1F007E000EBC00166
:1021700001EB001029688900B0FBF1F06422B0FB8C
:10218000F2F109010B096FF018056B4300EB8300B6
:10219000A3891D044FF0320307D503EBC000B0FB49
:1021A000F2F000F00700084306E003EB0010B0FB7C
:1021B000F2F000F00F000843208105B030BD0000B0
:1021C0000038014010B501210520FFF709F9012170
:1021D0008803FFF705F90121BDE810404804FFF727
:1021E000F1B80000054A4FF48041002802D01046A3
:1021F000FEF7F6BC1046FEF7F5BC0000000C0140EF
:102200000649054808600222027205484860054AEE
:102210008A60006800470000140200201C000020B3
:10222000A0010020F001002008B54FF4A060FEF7E7
:10223000DFFF14208DF8000001208DF8010000213F
:102240008DF802108DF803006846FEF79FFF08BD69
:1022500070B5294C2068294D68806888284E3188DF
:1022600008400004002801DAFDF7FEFF6888318885
:102270000840400505D54FF6FF30206021484068F2
:102280008047698830880140890402D54DF6FF7186
:10229000216069880140C80405D54EF6FF702060B2
:1022A0000020FFF7B3F968883188084000050BD596
:1022B0001548007810B1FFF76FFD02E00220FFF72C
:1022C000A5F94FF2FF7020606988308801408905C8
:1022D00005D54FF6FF5121602978491C297069887E
:1022E0000140C80507D54FF6FF602060BDE870408B
:1022F0000720FFF78BB970BD445C0040320100201D
:1023000028000020A001002014010020FFF7A0BF3A
:1023100005490020086005494FF43F400880024904
:10232000091F086000207047445C0040280000201E
:1023300070B50E46144600F07F052846FEF764FC93
:102340000146A2B2304600F007F8A1B22846FFF7D6
:1023500051FA002070BDFEE710B5521C5208084B20
:1023600003EB4101002A09D003784478801C43EA3A
:10237000042321F8043B521E002AF5D110BD0000B1
:10238000006000400FB4054B10B503A9044A029841
:1023900000F018F810BC5DF814FB000023280008BA
:1023A0003400002002E008C8121F08C1002AFAD138
:1023B00070477047002001E001C1121F002AFBD1C5
:1023C000704700002DE9FF4F8DB00F4605460026EF
:1023D000DEE1252874D100246D1CF149A246A146F6
:1023E00001222B78203B02FA03F0084202D004437A
:1023F0006D1CF6E728782A2810D06FF02F02287875
:10240000A0F13001092915D80AEB8A0102EB41013C
:1024100044F0020400EB010A6D1CF0E757F804AB2E
:10242000BAF1000F03DA44F40054CAF1000A44F090
:1024300002046D1C28782E2817D115F8010F44F0DE
:1024400004042A280ED06FF02F022878A0F1300162
:1024500009290AD809EB890102EB410100EB0109C6
:102460006D1CF2E757F8049B6D1C28786C280FD080
:1024700006DC4C2817D068280DD06A2814D104E057
:10248000742810D07A280FD10DE044F400140AE02B
:1024900044F4801401E044F440146978814202D18C
:1024A0006D1C04F580146D1C2A786E2A20D00DDC7A
:1024B000632A33D005DC002A6FD0582A12D1A2E05B
:1024C00011E0642A6AD0692A0CD167E0732A2FD000
:1024D00004DC6F2A6FD0702A04D199E0752A6BD082
:1024E000782A6AD01046DDE90F129047761C4EE13B
:1024F000C4F30250022806D003280AD0042801CFD2
:102500000AD0066043E101CF4FEAE671C0E90061FD
:102510003DE101CF06803AE1067038E117F8040B7F
:102520008DF8000000208DF80100EB46012003E04B
:1025300057F804BB4FF0FF3061074FF0000102D4A1
:102540000DE008F10101884649450FDA8045F8DBC6
:102550001BF808100029F4D108E008F101018846B1
:102560008142FADB1BF808100029F6D1DDE90F23C0
:10257000AAEB08008146214600F03BF9304400EB0D
:10258000080604E0DDE90F121BF8010B9047B8F1D3
:102590000108F7D221464846F4E0FDE00A21C4F3E1
:1025A00002534FF0000B0891022B07D001CFC11747
:1025B000032B09D00AE034E023E024E0FF1D27F0DC
:1025C0000707F7E8020105E000B2C117042B01D1AB
:1025D00040B2C117002907DA4FF0000CD0EB0C0015
:1025E0006CEB01012D2302E0230504D52B238DF88C
:1025F0002430012303E0E30701D02023F7E79846C6
:1026000050E00A210EE010204FF0000B08900CE083
:1026100010214FF0000B44F004044FF0080908911A
:1026200003E008214FF0000B0891C4F30253022B82
:1026300004D001CF0021032B06D006E0FF1D27F0B8
:102640000707F7E8020103E080B2042B00D1C0B213
:102650004FF00008230725D5702A2AD0DDF820C0C6
:102660008CF0100C5CEA0B0C09D150EA010306D087
:1026700030238DF824308DF8252002239846DDF88C
:1026800020C08CF0080C5CEA0B0C0BD150EA010363
:1026900001D1630706D530238DF824304FF00108AF
:1026A000A9F10109582A09D03EA20B9208AA0A9260
:1026B00011E040238DF824300123DFE73EA2F4E748
:1026C0005B46089AFDF72EFD0B9B9B5C0A9AA2F1D4
:1026D00001020A92137050EA0102F1D10A98ADEB9F
:1026E000000000F1200B600702D524F4803401E0E3
:1026F0004FF00109D94502DDA9EB0B0000E00020F5
:1027000000EB0B0141440890AAEB010AE00306D458
:10271000DDE90F232146504600F06BF80644002007
:1027200008E009A911F80900DDE90F129047761CAD
:1027300009F1010081464045F3DBE0030CD5DDE9FA
:102740000F232146504600F054F8064404E0DDE92A
:102750000F1230209047761C0899481E08900029D7
:10276000F5DC08E00A980A990078491C0A91DDE92D
:102770000F129047761CBBF10001ABF1010BF1DCAD
:1027800021465046DDE90F2300F020F806446D1C79
:10279000287800287FF41DAE11B03046BDE8F08FD8
:1027A0000928010030313233343536373839616227
:1027B00063646566000000003031323334353637EB
:1027C0003839414243444546000000002DE9F041BC
:1027D000044600251E461746880405D406E03946FF
:1027E0002020B04705F10105641EF8D52846BDE854
:1027F000F0812DE9F041044600251E469046C803AD
:1028000001D5302700E02027880405D506E04146A1
:102810003846B04705F10105641EF8D52846BDE8E5
:10282000F081FEF747BF0000FFF782F8FFF7FCFCDE
:10283000FFF7C4F8FFF7E4FCFDF70AFDFEF70EFC16
:10284000FEF7D4FA0DA0FFF79DFD114D114C0026A7
:10285000287810B100F022F82E702078C10702D03D
:1028600020F00100207020788007F1D50A48FEF79B
:102870007DFB207820F002002070E9E77379737403
:10288000656D20696E697420656E64210A00000020
:102890002E000020FA000020FB00002010B52622A8
:1028A00004498120FFF744FDBDE810400120FEF7F8
:1028B000C7BF0000E8150020120100020000004020
:1028C000F71F0100000101020301090229000101B3
:1028D00000A0960904000002030000000921100175
:1028E000000122670207058103400001070501037B
:1028F0004000010600FF0900A10185FD0600FF0957
:102900000109020903090409050906150026FF004B
:1029100075089506810285FE0600FF090109020976
:10292000030904150026FF0075089504B102C005CF
:10293000010902A1010901A1008501050919012967
:102940000315002501950375018102950175058127
:1029500003050109300931150026FF7F350046FFC8
:102960007F751095028102050D0933150025FF358D
:102970000045FF750895018102050109381581257B
:102980007F95018106C0C00600FF0900A10185FCFA
:10299000150025FF1901293F7508953F810219018E
:1029A000293F9102C00600FF0900A10185FB150027
:1029B00025FF1901293F7508953F81021901293F1B
:1029C0009102C0050D0904A10185020922A1020995
:1029D0004215002501750195018102093281029598
:1029E000068103750809519501810205011500262C
:1029F000FF7F7510550065000930350046000081E5
:102A00000209318102C0A102050D0942150025010C
:102A100075019501810209328102950681037508CD
:102A20000951950181020501150026FF7F7510559A
:102A3000006500093035004600008102093181023D
:102A4000C0A102050D0942150025017501950181FE
:102A500002093281029506810375080951950181A9
:102A6000020501150026FF7F75105500650009302D
:102A70003500460000810209318102C0A102050D26
:102A80000942150025017501950181020932810273
:102A9000950681037508095195018102050115000C
:102AA00026FF7F751055006500093035004600008F
:102AB000810209318102C0A102050D0942150025DC
:102AC0000175019501810209328102950681037524
:102AD000080951950181020501150026FF7F751037
:102AE000550065000930350046000081020931813A
:102AF00002C0A102050D09421500250175019501CD
:102B000081020932810295068103750809519501F8
:102B100081020501150026FF7F751055006500092B
:102B2000303500460000810209318102C0050D09DF
:102B300054950175088102850309552502B102C02B
:102B4000090EA10185040923A102095209531500A8
:102B5000250A75089502B102C0C0040309041403D4
:102B6000430050004C00550053005F0048004900EE
:102B700044001203420079002000480041004C004C
:102B800045003100A42B00080000002014020000C2
:102B9000E8010008502C0008140200205C18000016
:102BA000B423000845020406082D010203040405AD
:102BB0002406070809171FF7FC3008015B014C09C0
:102BC000111A4B0904A8AD0102D2FF100950435558
:102BD0004C49564F4E425319CE141A0378A902019C
:102BE0001113A50A0C14083511040A19A71C1A039D
:102BF0005DC113B8283308121ACA0832291AF3081B
:102C00002367021AD30832091335071408C1051CBB
:102C100008DD0610190C1371041B08A1101A8D048D
:102C20001A09041AFD101A6D08413240135A2B3349
:102C300008041A5E0832141A720829601317012B4F
:102C4000201A5019841A754C0916A01A911C0000FC
:04000005080000ED02
:00000001FF
